{
  "address": "0xa844f9568932cFe672F3b97D142fe0e80BB529A6",
  "abi": [
    {
      "inputs": [
        {
          "internalType": "address",
          "name": "_OHM",
          "type": "address"
        }
      ],
      "stateMutability": "nonpayable",
      "type": "constructor"
    },
    {
      "inputs": [],
      "name": "OHM",
      "outputs": [
        {
          "internalType": "address",
          "name": "",
          "type": "address"
        }
      ],
      "stateMutability": "view",
      "type": "function"
    },
    {
      "inputs": [
        {
          "internalType": "address",
          "name": "_pair",
          "type": "address"
        }
      ],
      "name": "getKValue",
      "outputs": [
        {
          "internalType": "uint256",
          "name": "k_",
          "type": "uint256"
        }
      ],
      "stateMutability": "view",
      "type": "function"
    },
    {
      "inputs": [
        {
          "internalType": "address",
          "name": "_pair",
          "type": "address"
        }
      ],
      "name": "getTotalValue",
      "outputs": [
        {
          "internalType": "uint256",
          "name": "_value",
          "type": "uint256"
        }
      ],
      "stateMutability": "view",
      "type": "function"
    },
    {
      "inputs": [
        {
          "internalType": "address",
          "name": "_pair",
          "type": "address"
        }
      ],
      "name": "markdown",
      "outputs": [
        {
          "internalType": "uint256",
          "name": "",
          "type": "uint256"
        }
      ],
      "stateMutability": "view",
      "type": "function"
    },
    {
      "inputs": [
        {
          "internalType": "address",
          "name": "_pair",
          "type": "address"
        },
        {
          "internalType": "uint256",
          "name": "amount_",
          "type": "uint256"
        }
      ],
      "name": "valuation",
      "outputs": [
        {
          "internalType": "uint256",
          "name": "_value",
          "type": "uint256"
        }
      ],
      "stateMutability": "view",
      "type": "function"
    }
  ],
  "transactionHash": "0xcdb234278641d45262b095168811aa0325cb6fa93f2c599c2ddb9815ff0d9549",
  "args": [
    "0x3347453Ced85bd288D783d85cDEC9b01Ab90f9D8"
  ],
  "numDeployments": 1,
  "solcInputHash": "bc57f96df8fea66ee3b6d599b99cdf68",
  "bytecode": "0x60a060405234801561001057600080fd5b506040516113133803806113138339818101604052602081101561003357600080fd5b8101908080519060200190929190505050600073ffffffffffffffffffffffffffffffffffffffff168173ffffffffffffffffffffffffffffffffffffffff16141561007e57600080fd5b8073ffffffffffffffffffffffffffffffffffffffff1660808173ffffffffffffffffffffffffffffffffffffffff1660601b815250505060805160601c6112366100dd6000398061029d528061038c52806108ff52506112366000f3fe608060405234801561001057600080fd5b50600436106100575760003560e01c806332da80a31461005c5780634249719f146100b4578063490084ef14610116578063686375491461016e578063a6c41fec146101c6575b600080fd5b61009e6004803603602081101561007257600080fd5b81019080803573ffffffffffffffffffffffffffffffffffffffff1690602001909291905050506101fa565b6040518082815260200191505060405180910390f35b610100600480360360408110156100ca57600080fd5b81019080803573ffffffffffffffffffffffffffffffffffffffff1690602001909291908035906020019092919050505061045b565b6040518082815260200191505060405180910390f35b6101586004803603602081101561012c57600080fd5b81019080803573ffffffffffffffffffffffffffffffffffffffff169060200190929190505050610536565b6040518082815260200191505060405180910390f35b6101b06004803603602081101561018457600080fd5b81019080803573ffffffffffffffffffffffffffffffffffffffff1690602001909291905050506108d0565b6040518082815260200191505060405180910390f35b6101ce6108fd565b604051808273ffffffffffffffffffffffffffffffffffffffff16815260200191505060405180910390f35b60008060008373ffffffffffffffffffffffffffffffffffffffff16630902f1ac6040518163ffffffff1660e01b815260040160606040518083038186803b15801561024557600080fd5b505afa158015610259573d6000803e3d6000fd5b505050506040513d606081101561026f57600080fd5b81019080805190602001909291908051906020019092919080519060200190929190505050509150915060007f000000000000000000000000000000000000000000000000000000000000000073ffffffffffffffffffffffffffffffffffffffff168573ffffffffffffffffffffffffffffffffffffffff16630dfe16816040518163ffffffff1660e01b815260040160206040518083038186803b15801561031857600080fd5b505afa15801561032c573d6000803e3d6000fd5b505050506040513d602081101561034257600080fd5b810190808051906020019092919050505073ffffffffffffffffffffffffffffffffffffffff1614156103775781905061037b565b8290505b610451610387866108d0565b6104437f000000000000000000000000000000000000000000000000000000000000000073ffffffffffffffffffffffffffffffffffffffff1663313ce5676040518163ffffffff1660e01b815260040160206040518083038186803b1580156103f057600080fd5b505afa158015610404573d6000803e3d6000fd5b505050506040513d602081101561041a57600080fd5b810190808051906020019092919050505060ff16600a0a6002028461092190919063ffffffff16565b6109a790919063ffffffff16565b9350505050919050565b600080610467846108d0565b905060008473ffffffffffffffffffffffffffffffffffffffff166318160ddd6040518163ffffffff1660e01b815260040160206040518083038186803b1580156104b157600080fd5b505afa1580156104c5573d6000803e3d6000fd5b505050506040513d60208110156104db57600080fd5b8101908080519060200190929190505050905061052c670de0b6b3a764000061051e61050f61050a88866109f1565b610cd2565b8561092190919063ffffffff16565b6109a790919063ffffffff16565b9250505092915050565b6000808273ffffffffffffffffffffffffffffffffffffffff16630dfe16816040518163ffffffff1660e01b815260040160206040518083038186803b15801561057f57600080fd5b505afa158015610593573d6000803e3d6000fd5b505050506040513d60208110156105a957600080fd5b8101908080519060200190929190505050905060008173ffffffffffffffffffffffffffffffffffffffff1663313ce5676040518163ffffffff1660e01b815260040160206040518083038186803b15801561060457600080fd5b505afa158015610618573d6000803e3d6000fd5b505050506040513d602081101561062e57600080fd5b810190808051906020019092919050505060ff16905060008473ffffffffffffffffffffffffffffffffffffffff1663d21220a76040518163ffffffff1660e01b815260040160206040518083038186803b15801561068c57600080fd5b505afa1580156106a0573d6000803e3d6000fd5b505050506040513d60208110156106b657600080fd5b8101908080519060200190929190505050905060008173ffffffffffffffffffffffffffffffffffffffff1663313ce5676040518163ffffffff1660e01b815260040160206040518083038186803b15801561071157600080fd5b505afa158015610725573d6000803e3d6000fd5b505050506040513d602081101561073b57600080fd5b810190808051906020019092919050505060ff16905060006107fb8773ffffffffffffffffffffffffffffffffffffffff1663313ce5676040518163ffffffff1660e01b815260040160206040518083038186803b15801561079c57600080fd5b505afa1580156107b0573d6000803e3d6000fd5b505050506040513d60208110156107c657600080fd5b810190808051906020019092919050505060ff166107ed8487610d0e90919063ffffffff16565b610d9690919063ffffffff16565b90506000808873ffffffffffffffffffffffffffffffffffffffff16630902f1ac6040518163ffffffff1660e01b815260040160606040518083038186803b15801561084657600080fd5b505afa15801561085a573d6000803e3d6000fd5b505050506040513d606081101561087057600080fd5b8101908080519060200190929190805190602001909291908051906020019092919050505050915091506108c283600a0a6108b4838561092190919063ffffffff16565b6109a790919063ffffffff16565b975050505050505050919050565b60006108f660026108e86108e385610536565b610de0565b61092190919063ffffffff16565b9050919050565b7f000000000000000000000000000000000000000000000000000000000000000081565b60008083141561093457600090506109a1565b600082840290508284828161094557fe5b041461099c576040517f08c379a00000000000000000000000000000000000000000000000000000000081526004018080602001828103825260218152602001806111e06021913960400191505060405180910390fd5b809150505b92915050565b60006109e983836040518060400160405280601a81526020017f536166654d6174683a206469766973696f6e206279207a65726f000000000000815250610e50565b905092915050565b6109f9611188565b60008211610a52576040517f08c379a00000000000000000000000000000000000000000000000000000000081526004018080602001828103825260268152602001806111ba6026913960400191505060405180910390fd5b6000831415610a9057604051806020016040528060007bffffffffffffffffffffffffffffffffffffffffffffffffffffffff168152509050610ccc565b7fffffffffffffffffffffffffffffffffffffffffffffffffffffffffffffffff71ffffffffffffffffffffffffffffffffffff168311610bc957600082607060ff1685901b81610add57fe5b0490507fffffffffffffffffffffffffffffffffffffffffffffffffffffffffffffffff7bffffffffffffffffffffffffffffffffffffffffffffffffffffffff16811115610b94576040517f08c379a000000000000000000000000000000000000000000000000000000000815260040180806020018281038252601e8152602001807f4669786564506f696e743a3a6672616374696f6e3a206f766572666c6f77000081525060200191505060405180910390fd5b6040518060200160405280827bffffffffffffffffffffffffffffffffffffffffffffffffffffffff16815250915050610ccc565b6000610be5846e01000000000000000000000000000085610f16565b90507fffffffffffffffffffffffffffffffffffffffffffffffffffffffffffffffff7bffffffffffffffffffffffffffffffffffffffffffffffffffffffff16811115610c9b576040517f08c379a000000000000000000000000000000000000000000000000000000000815260040180806020018281038252601e8152602001807f4669786564506f696e743a3a6672616374696f6e3a206f766572666c6f77000081525060200191505060405180910390fd5b6040518060200160405280827bffffffffffffffffffffffffffffffffffffffffffffffffffffffff168152509150505b92915050565b60006612725dd1d243ab82600001517bffffffffffffffffffffffffffffffffffffffffffffffffffffffff1681610d0657fe5b049050919050565b600080828401905083811015610d8c576040517f08c379a000000000000000000000000000000000000000000000000000000000815260040180806020018281038252601b8152602001807f536166654d6174683a206164646974696f6e206f766572666c6f77000000000081525060200191505060405180910390fd5b8091505092915050565b6000610dd883836040518060400160405280601e81526020017f536166654d6174683a207375627472616374696f6e206f766572666c6f770000815250610fd8565b905092915050565b60006003821115610e3d578190506000610e05610dfe8460026109a7565b6001610d0e565b90505b81811015610e3757809150610e30610e29610e2385846109a7565b83610d0e565b60026109a7565b9050610e08565b50610e4b565b60008214610e4a57600190505b5b919050565b60008083118290610efc576040517f08c379a00000000000000000000000000000000000000000000000000000000081526004018080602001828103825283818151815260200191508051906020019080838360005b83811015610ec1578082015181840152602081019050610ea6565b50505050905090810190601f168015610eee5780820380516001836020036101000a031916815260200191505b509250505060405180910390fd5b506000838581610f0857fe5b049050809150509392505050565b6000806000610f258686611098565b9150915060008480610f3357fe5b868809905082811115610f47576001820391505b8083039250848210610fc1576040517f08c379a000000000000000000000000000000000000000000000000000000000815260040180806020018281038252601a8152602001807f46756c6c4d6174683a3a6d756c4469763a206f766572666c6f7700000000000081525060200191505060405180910390fd5b610fcc8383876110eb565b93505050509392505050565b6000838311158290611085576040517f08c379a00000000000000000000000000000000000000000000000000000000081526004018080602001828103825283818151815260200191508051906020019080838360005b8381101561104a57808201518184015260208101905061102f565b50505050905090810190601f1680156110775780820380516001836020036101000a031916815260200191505b509250505060405180910390fd5b5060008385039050809150509392505050565b60008060007fffffffffffffffffffffffffffffffffffffffffffffffffffffffffffffffff806110c557fe5b848609905083850292508281039150828110156110e3576001820391505b509250929050565b60008082600003831690508083816110ff57fe5b04925080858161110b57fe5b049450600181826000038161111c57fe5b04018402850194506000600190508084026002038102905080840260020381029050808402600203810290508084026002038102905080840260020381029050808402600203810290508084026002038102905080840260020381029050808602925050509392505050565b604051806020016040528060007bffffffffffffffffffffffffffffffffffffffffffffffffffffffff168152509056fe4669786564506f696e743a3a6672616374696f6e3a206469766973696f6e206279207a65726f536166654d6174683a206d756c7469706c69636174696f6e206f766572666c6f77a26469706673582212200697304a7b125dc5d4852d327c15ba887d44266fbeaf1f71219a4c05de4552e764736f6c63430007050033",
  "devdoc": {
    "kind": "dev",
    "methods": {},
    "version": 1
  },
  "userdoc": {
    "kind": "user",
    "methods": {},
    "version": 1
  },
  "storageLayout": {
    "storage": [],
    "types": null
  }
}